0000000000001482012000000701031980000000322116133190000000000000060001524bvhg                          VAC/002             General             
0000000000005652012000001017041980000000322116133190000000000000025001524fhfgh thytr yrtryty           VAC/001             General             
0000000000005652012000000416101982000000322116133190000000000000025001524dfger retre rete              VAC/001             General             
0000000000005652012000000517051980000000322116133190000000000000025001524ggg gg ggg                    VAC/001             General             
0000000000005652012000001217041980000000322116133190000000000000025001524gfhfghhhhhhhhhh uuuuuuuuuuuuuuVAC/001             General             
0000000000005652012000002401021985000000322116133190000000000000060001524vfghfg fghfg fghfgh           VAC/001             General             
0000000000001482012000000120121982000000322116133190000000000000025001524Tondon kumar sharma           VAC/002             General             
0000000000001482012000001001011986000000322116133190000000000000025001524ioui ouioui uiou              VAC/002             General             
0000000000005652012000002301021985000000322116133190000000000000030001524XYZ ghngh ghngh               VAC/001             General             
